{
  "_format": "hh-sol-artifact-1",
  "contractName": "SimpleERC721",
  "sourceName": "contracts/SimpleERC721.sol",
  "abi": [
    {
      "inputs": [
        {
          "internalType": "string",
          "name": "name_",
          "type": "string"
        },
        {
          "internalType": "string",
          "name": "symbol_",
          "type": "string"
        },
        {
          "internalType": "string",
          "name": "URI_",
          "type": "string"
        }
      ],
      "stateMutability": "nonpayable",
      "type": "constructor"
    },
    {
      "anonymous": false,
      "inputs": [
        {
          "indexed": true,
          "internalType": "address",
          "name": "owner",
          "type": "address"
        },
        {
          "indexed": true,
          "internalType": "address",
          "name": "approved",
          "type": "address"
        },
        {
          "indexed": true,
          "internalType": "uint256",
          "name": "tokenId",
          "type": "uint256"
        }
      ],
      "name": "Approval",
      "type": "event"
    },
    {
      "anonymous": false,
      "inputs": [
        {
          "indexed": true,
          "internalType": "address",
          "name": "owner",
          "type": "address"
        },
        {
          "indexed": true,
          "internalType": "address",
          "name": "operator",
          "type": "address"
        },
        {
          "indexed": false,
          "internalType": "bool",
          "name": "approved",
          "type": "bool"
        }
      ],
      "name": "ApprovalForAll",
      "type": "event"
    },
    {
      "anonymous": false,
      "inputs": [
        {
          "indexed": true,
          "internalType": "address",
          "name": "from",
          "type": "address"
        },
        {
          "indexed": true,
          "internalType": "address",
          "name": "to",
          "type": "address"
        },
        {
          "indexed": true,
          "internalType": "uint256",
          "name": "tokenId",
          "type": "uint256"
        }
      ],
      "name": "Transfer",
      "type": "event"
    },
    {
      "inputs": [
        {
          "internalType": "address",
          "name": "to",
          "type": "address"
        },
        {
          "internalType": "uint256",
          "name": "tokenId",
          "type": "uint256"
        }
      ],
      "name": "approve",
      "outputs": [],
      "stateMutability": "nonpayable",
      "type": "function"
    },
    {
      "inputs": [
        {
          "internalType": "address",
          "name": "owner",
          "type": "address"
        }
      ],
      "name": "balanceOf",
      "outputs": [
        {
          "internalType": "uint256",
          "name": "",
          "type": "uint256"
        }
      ],
      "stateMutability": "view",
      "type": "function"
    },
    {
      "inputs": [
        {
          "internalType": "uint256",
          "name": "tokenId",
          "type": "uint256"
        }
      ],
      "name": "getApproved",
      "outputs": [
        {
          "internalType": "address",
          "name": "",
          "type": "address"
        }
      ],
      "stateMutability": "view",
      "type": "function"
    },
    {
      "inputs": [
        {
          "internalType": "address",
          "name": "owner",
          "type": "address"
        },
        {
          "internalType": "address",
          "name": "operator",
          "type": "address"
        }
      ],
      "name": "isApprovedForAll",
      "outputs": [
        {
          "internalType": "bool",
          "name": "",
          "type": "bool"
        }
      ],
      "stateMutability": "view",
      "type": "function"
    },
    {
      "inputs": [],
      "name": "manager",
      "outputs": [
        {
          "internalType": "address",
          "name": "",
          "type": "address"
        }
      ],
      "stateMutability": "view",
      "type": "function"
    },
    {
      "inputs": [],
      "name": "name",
      "outputs": [
        {
          "internalType": "string",
          "name": "",
          "type": "string"
        }
      ],
      "stateMutability": "view",
      "type": "function"
    },
    {
      "inputs": [
        {
          "internalType": "uint256",
          "name": "tokenId",
          "type": "uint256"
        }
      ],
      "name": "ownerOf",
      "outputs": [
        {
          "internalType": "address",
          "name": "",
          "type": "address"
        }
      ],
      "stateMutability": "view",
      "type": "function"
    },
    {
      "inputs": [
        {
          "internalType": "address",
          "name": "from",
          "type": "address"
        },
        {
          "internalType": "address",
          "name": "to",
          "type": "address"
        },
        {
          "internalType": "uint256",
          "name": "tokenId",
          "type": "uint256"
        }
      ],
      "name": "safeTransferFrom",
      "outputs": [],
      "stateMutability": "nonpayable",
      "type": "function"
    },
    {
      "inputs": [
        {
          "internalType": "address",
          "name": "from",
          "type": "address"
        },
        {
          "internalType": "address",
          "name": "to",
          "type": "address"
        },
        {
          "internalType": "uint256",
          "name": "tokenId",
          "type": "uint256"
        },
        {
          "internalType": "bytes",
          "name": "_data",
          "type": "bytes"
        }
      ],
      "name": "safeTransferFrom",
      "outputs": [],
      "stateMutability": "nonpayable",
      "type": "function"
    },
    {
      "inputs": [
        {
          "internalType": "address",
          "name": "operator",
          "type": "address"
        },
        {
          "internalType": "bool",
          "name": "approved",
          "type": "bool"
        }
      ],
      "name": "setApprovalForAll",
      "outputs": [],
      "stateMutability": "nonpayable",
      "type": "function"
    },
    {
      "inputs": [
        {
          "internalType": "bytes4",
          "name": "interfaceId",
          "type": "bytes4"
        }
      ],
      "name": "supportsInterface",
      "outputs": [
        {
          "internalType": "bool",
          "name": "",
          "type": "bool"
        }
      ],
      "stateMutability": "view",
      "type": "function"
    },
    {
      "inputs": [],
      "name": "symbol",
      "outputs": [
        {
          "internalType": "string",
          "name": "",
          "type": "string"
        }
      ],
      "stateMutability": "view",
      "type": "function"
    },
    {
      "inputs": [
        {
          "internalType": "uint256",
          "name": "tokenId",
          "type": "uint256"
        }
      ],
      "name": "tokenURI",
      "outputs": [
        {
          "internalType": "string",
          "name": "",
          "type": "string"
        }
      ],
      "stateMutability": "view",
      "type": "function"
    },
    {
      "inputs": [
        {
          "internalType": "address",
          "name": "from",
          "type": "address"
        },
        {
          "internalType": "address",
          "name": "to",
          "type": "address"
        },
        {
          "internalType": "uint256",
          "name": "tokenId",
          "type": "uint256"
        }
      ],
      "name": "transferFrom",
      "outputs": [],
      "stateMutability": "nonpayable",
      "type": "function"
    },
    {
      "inputs": [
        {
          "internalType": "address",
          "name": "to",
          "type": "address"
        },
        {
          "internalType": "uint256",
          "name": "tokenId",
          "type": "uint256"
        }
      ],
      "name": "zachMint",
      "outputs": [],
      "stateMutability": "nonpayable",
      "type": "function"
    }
  ],
  "bytecode": "0x60806040523480156200001157600080fd5b5060405162002877380380620028778339818101604052810190620000379190620001f2565b8282816000908051906020019062000051929190620000d0565b5080600190805190602001906200006a929190620000d0565b505050806007908051906020019062000085929190620000d0565b5033600660006101000a81548173ffffffffffffffffffffffffffffffffffffffff021916908373ffffffffffffffffffffffffffffffffffffffff160217905550505050620003c4565b828054620000de9062000330565b90600052602060002090601f0160209004810192826200010257600085556200014e565b82601f106200011d57805160ff19168380011785556200014e565b828001600101855582156200014e579182015b828111156200014d57825182559160200191906001019062000130565b5b5090506200015d919062000161565b5090565b5b808211156200017c57600081600090555060010162000162565b5090565b6000620001976200019184620002c7565b62000293565b905082815260208101848484011115620001b057600080fd5b620001bd848285620002fa565b509392505050565b600082601f830112620001d757600080fd5b8151620001e984826020860162000180565b91505092915050565b6000806000606084860312156200020857600080fd5b600084015167ffffffffffffffff8111156200022357600080fd5b6200023186828701620001c5565b935050602084015167ffffffffffffffff8111156200024f57600080fd5b6200025d86828701620001c5565b925050604084015167ffffffffffffffff8111156200027b57600080fd5b6200028986828701620001c5565b9150509250925092565b6000604051905081810181811067ffffffffffffffff82111715620002bd57620002bc62000395565b5b8060405250919050565b600067ffffffffffffffff821115620002e557620002e462000395565b5b601f19601f8301169050602081019050919050565b60005b838110156200031a578082015181840152602081019050620002fd565b838111156200032a576000848401525b50505050565b600060028204905060018216806200034957607f821691505b6020821081141562000360576200035f62000366565b5b50919050565b7f4e487b7100000000000000000000000000000000000000000000000000000000600052602260045260246000fd5b7f4e487b7100000000000000000000000000000000000000000000000000000000600052604160045260246000fd5b6124a380620003d46000396000f3fe608060405234801561001057600080fd5b50600436106100f55760003560e01c8063481c6a7511610097578063a22cb46511610066578063a22cb46514610284578063b88d4fde146102a0578063c87b56dd146102bc578063e985e9c5146102ec576100f5565b8063481c6a75146101e85780636352211e1461020657806370a082311461023657806395d89b4114610266576100f5565b8063095ea7b3116100d3578063095ea7b3146101785780630a3c63ea1461019457806323b872dd146101b057806342842e0e146101cc576100f5565b806301ffc9a7146100fa57806306fdde031461012a578063081812fc14610148575b600080fd5b610114600480360381019061010f919061184d565b61031c565b6040516101219190611f30565b60405180910390f35b6101326103fe565b60405161013f9190611f4b565b60405180910390f35b610162600480360381019061015d919061189f565b610490565b60405161016f9190611ec9565b60405180910390f35b610192600480360381019061018d9190611811565b610515565b005b6101ae60048036038101906101a99190611811565b61062d565b005b6101ca60048036038101906101c5919061170b565b6106db565b005b6101e660048036038101906101e1919061170b565b61073b565b005b6101f061075b565b6040516101fd9190611ec9565b60405180910390f35b610220600480360381019061021b919061189f565b610781565b60405161022d9190611ec9565b60405180910390f35b610250600480360381019061024b91906116a6565b610833565b60405161025d919061214d565b60405180910390f35b61026e6108eb565b60405161027b9190611f4b565b60405180910390f35b61029e600480360381019061029991906117d5565b61097d565b005b6102ba60048036038101906102b5919061175a565b610afe565b005b6102d660048036038101906102d1919061189f565b610b60565b6040516102e39190611f4b565b60405180910390f35b610306600480360381019061030191906116cf565b610c3c565b6040516103139190611f30565b60405180910390f35b60007f80ac58cd000000000000000000000000000000000000000000000000000000007bffffffffffffffffffffffffffffffffffffffffffffffffffffffff1916827bffffffffffffffffffffffffffffffffffffffffffffffffffffffff191614806103e757507f5b5e139f000000000000000000000000000000000000000000000000000000007bffffffffffffffffffffffffffffffffffffffffffffffffffffffff1916827bffffffffffffffffffffffffffffffffffffffffffffffffffffffff1916145b806103f757506103f682610cd0565b5b9050919050565b60606000805461040d90612341565b80601f016020809104026020016040519081016040528092919081815260200182805461043990612341565b80156104865780601f1061045b57610100808354040283529160200191610486565b820191906000526020600020905b81548152906001019060200180831161046957829003601f168201915b5050505050905090565b600061049b82610d3a565b6104da576040517f08c379a00000000000000000000000000000000000000000000000000000000081526004016104d1906120ad565b60405180910390fd5b6004600083815260200190815260200160002060009054906101000a900473ffffffffffffffffffffffffffffffffffffffff169050919050565b600061052082610781565b90508073ffffffffffffffffffffffffffffffffffffffff168373ffffffffffffffffffffffffffffffffffffffff161415610591576040517f08c379a00000000000000000000000000000000000000000000000000000000081526004016105889061210d565b60405180910390fd5b8073ffffffffffffffffffffffffffffffffffffffff166105b0610da6565b73ffffffffffffffffffffffffffffffffffffffff1614806105df57506105de816105d9610da6565b610c3c565b5b61061e576040517f08c379a00000000000000000000000000000000000000000000000000000000081526004016106159061200d565b60405180910390fd5b6106288383610dae565b505050565b600660009054906101000a900473ffffffffffffffffffffffffffffffffffffffff1673ffffffffffffffffffffffffffffffffffffffff163373ffffffffffffffffffffffffffffffffffffffff16146106bd576040517f08c379a00000000000000000000000000000000000000000000000000000000081526004016106b49061208d565b60405180910390fd5b6106d7828260405180602001604052806000815250610e67565b5050565b6106ec6106e6610da6565b82610ec2565b61072b576040517f08c379a00000000000000000000000000000000000000000000000000000000081526004016107229061212d565b60405180910390fd5b610736838383610fa0565b505050565b61075683838360405180602001604052806000815250610afe565b505050565b600660009054906101000a900473ffffffffffffffffffffffffffffffffffffffff1681565b6000806002600084815260200190815260200160002060009054906101000a900473ffffffffffffffffffffffffffffffffffffffff169050600073ffffffffffffffffffffffffffffffffffffffff168173ffffffffffffffffffffffffffffffffffffffff16141561082a576040517f08c379a00000000000000000000000000000000000000000000000000000000081526004016108219061204d565b60405180910390fd5b80915050919050565b60008073ffffffffffffffffffffffffffffffffffffffff168273ffffffffffffffffffffffffffffffffffffffff1614156108a4576040517f08c379a000000000000000000000000000000000000000000000000000000000815260040161089b9061202d565b60405180910390fd5b600360008373ffffffffffffffffffffffffffffffffffffffff1673ffffffffffffffffffffffffffffffffffffffff168152602001908152602001600020549050919050565b6060600180546108fa90612341565b80601f016020809104026020016040519081016040528092919081815260200182805461092690612341565b80156109735780601f1061094857610100808354040283529160200191610973565b820191906000526020600020905b81548152906001019060200180831161095657829003601f168201915b5050505050905090565b610985610da6565b73ffffffffffffffffffffffffffffffffffffffff168273ffffffffffffffffffffffffffffffffffffffff1614156109f3576040517f08c379a00000000000000000000000000000000000000000000000000000000081526004016109ea90611fcd565b60405180910390fd5b8060056000610a00610da6565b73ffffffffffffffffffffffffffffffffffffffff1673ffffffffffffffffffffffffffffffffffffffff16815260200190815260200160002060008473ffffffffffffffffffffffffffffffffffffffff1673ffffffffffffffffffffffffffffffffffffffff16815260200190815260200160002060006101000a81548160ff0219169083151502179055508173ffffffffffffffffffffffffffffffffffffffff16610aad610da6565b73ffffffffffffffffffffffffffffffffffffffff167f17307eab39ab6107e8899845ad3d59bd9653f200f220920489ca2b5937696c3183604051610af29190611f30565b60405180910390a35050565b610b0f610b09610da6565b83610ec2565b610b4e576040517f08c379a0000000000000000000000000000000000000000000000000000000008152600401610b459061212d565b60405180910390fd5b610b5a848484846111fc565b50505050565b6060610b6b82610d3a565b610baa576040517f08c379a0000000000000000000000000000000000000000000000000000000008152600401610ba1906120ed565b60405180910390fd5b60078054610bb790612341565b80601f0160208091040260200160405190810160405280929190818152602001828054610be390612341565b8015610c305780601f10610c0557610100808354040283529160200191610c30565b820191906000526020600020905b815481529060010190602001808311610c1357829003601f168201915b50505050509050919050565b6000600560008473ffffffffffffffffffffffffffffffffffffffff1673ffffffffffffffffffffffffffffffffffffffff16815260200190815260200160002060008373ffffffffffffffffffffffffffffffffffffffff1673ffffffffffffffffffffffffffffffffffffffff16815260200190815260200160002060009054906101000a900460ff16905092915050565b60007f01ffc9a7000000000000000000000000000000000000000000000000000000007bffffffffffffffffffffffffffffffffffffffffffffffffffffffff1916827bffffffffffffffffffffffffffffffffffffffffffffffffffffffff1916149050919050565b60008073ffffffffffffffffffffffffffffffffffffffff166002600084815260200190815260200160002060009054906101000a900473ffffffffffffffffffffffffffffffffffffffff1673ffffffffffffffffffffffffffffffffffffffff1614159050919050565b600033905090565b816004600083815260200190815260200160002060006101000a81548173ffffffffffffffffffffffffffffffffffffffff021916908373ffffffffffffffffffffffffffffffffffffffff160217905550808273ffffffffffffffffffffffffffffffffffffffff16610e2183610781565b73ffffffffffffffffffffffffffffffffffffffff167f8c5be1e5ebec7d5bd14f71427d1e84f3dd0314c0f7b2291e5b200ac8c7c3b92560405160405180910390a45050565b610e718383611258565b610e7e6000848484611426565b610ebd576040517f08c379a0000000000000000000000000000000000000000000000000000000008152600401610eb490611f6d565b60405180910390fd5b505050565b6000610ecd82610d3a565b610f0c576040517f08c379a0000000000000000000000000000000000000000000000000000000008152600401610f0390611fed565b60405180910390fd5b6000610f1783610781565b90508073ffffffffffffffffffffffffffffffffffffffff168473ffffffffffffffffffffffffffffffffffffffff161480610f8657508373ffffffffffffffffffffffffffffffffffffffff16610f6e84610490565b73ffffffffffffffffffffffffffffffffffffffff16145b80610f975750610f968185610c3c565b5b91505092915050565b8273ffffffffffffffffffffffffffffffffffffffff16610fc082610781565b73ffffffffffffffffffffffffffffffffffffffff1614611016576040517f08c379a000000000000000000000000000000000000000000000000000000000815260040161100d906120cd565b60405180910390fd5b600073ffffffffffffffffffffffffffffffffffffffff168273ffffffffffffffffffffffffffffffffffffffff161415611086576040517f08c379a000000000000000000000000000000000000000000000000000000000815260040161107d90611fad565b60405180910390fd5b6110918383836115bd565b61109c600082610dae565b6001600360008573ffffffffffffffffffffffffffffffffffffffff1673ffffffffffffffffffffffffffffffffffffffff16815260200190815260200160002060008282546110ec9190612257565b925050819055506001600360008473ffffffffffffffffffffffffffffffffffffffff1673ffffffffffffffffffffffffffffffffffffffff16815260200190815260200160002060008282546111439190612201565b92505081905550816002600083815260200190815260200160002060006101000a81548173ffffffffffffffffffffffffffffffffffffffff021916908373ffffffffffffffffffffffffffffffffffffffff160217905550808273ffffffffffffffffffffffffffffffffffffffff168473ffffffffffffffffffffffffffffffffffffffff167fddf252ad1be2c89b69c2b068fc378daa952ba7f163c4a11628f55a4df523b3ef60405160405180910390a4505050565b611207848484610fa0565b61121384848484611426565b611252576040517f08c379a000000000000000000000000000000000000000000000000000000000815260040161124990611f6d565b60405180910390fd5b50505050565b600073ffffffffffffffffffffffffffffffffffffffff168273ffffffffffffffffffffffffffffffffffffffff1614156112c8576040517f08c379a00000000000000000000000000000000000000000000000000000000081526004016112bf9061206d565b60405180910390fd5b6112d181610d3a565b15611311576040517f08c379a000000000000000000000000000000000000000000000000000000000815260040161130890611f8d565b60405180910390fd5b61131d600083836115bd565b6001600360008473ffffffffffffffffffffffffffffffffffffffff1673ffffffffffffffffffffffffffffffffffffffff168152602001908152602001600020600082825461136d9190612201565b92505081905550816002600083815260200190815260200160002060006101000a81548173ffffffffffffffffffffffffffffffffffffffff021916908373ffffffffffffffffffffffffffffffffffffffff160217905550808273ffffffffffffffffffffffffffffffffffffffff16600073ffffffffffffffffffffffffffffffffffffffff167fddf252ad1be2c89b69c2b068fc378daa952ba7f163c4a11628f55a4df523b3ef60405160405180910390a45050565b60006114478473ffffffffffffffffffffffffffffffffffffffff166115c2565b156115b0578373ffffffffffffffffffffffffffffffffffffffff1663150b7a02611470610da6565b8786866040518563ffffffff1660e01b81526004016114929493929190611ee4565b602060405180830381600087803b1580156114ac57600080fd5b505af19250505080156114dd57506040513d601f19601f820116820180604052508101906114da9190611876565b60015b611560573d806000811461150d576040519150601f19603f3d011682016040523d82523d6000602084013e611512565b606091505b50600081511415611558576040517f08c379a000000000000000000000000000000000000000000000000000000000815260040161154f90611f6d565b60405180910390fd5b805181602001fd5b63150b7a0260e01b7bffffffffffffffffffffffffffffffffffffffffffffffffffffffff1916817bffffffffffffffffffffffffffffffffffffffffffffffffffffffff1916149150506115b5565b600190505b949350505050565b505050565b600080823b905060008111915050919050565b60006115e86115e384612199565b612168565b90508281526020810184848401111561160057600080fd5b61160b8482856122ff565b509392505050565b60008135905061162281612411565b92915050565b60008135905061163781612428565b92915050565b60008135905061164c8161243f565b92915050565b6000815190506116618161243f565b92915050565b600082601f83011261167857600080fd5b81356116888482602086016115d5565b91505092915050565b6000813590506116a081612456565b92915050565b6000602082840312156116b857600080fd5b60006116c684828501611613565b91505092915050565b600080604083850312156116e257600080fd5b60006116f085828601611613565b925050602061170185828601611613565b9150509250929050565b60008060006060848603121561172057600080fd5b600061172e86828701611613565b935050602061173f86828701611613565b925050604061175086828701611691565b9150509250925092565b6000806000806080858703121561177057600080fd5b600061177e87828801611613565b945050602061178f87828801611613565b93505060406117a087828801611691565b925050606085013567ffffffffffffffff8111156117bd57600080fd5b6117c987828801611667565b91505092959194509250565b600080604083850312156117e857600080fd5b60006117f685828601611613565b925050602061180785828601611628565b9150509250929050565b6000806040838503121561182457600080fd5b600061183285828601611613565b925050602061184385828601611691565b9150509250929050565b60006020828403121561185f57600080fd5b600061186d8482850161163d565b91505092915050565b60006020828403121561188857600080fd5b600061189684828501611652565b91505092915050565b6000602082840312156118b157600080fd5b60006118bf84828501611691565b91505092915050565b6118d18161228b565b82525050565b6118e08161229d565b82525050565b60006118f1826121c9565b6118fb81856121df565b935061190b81856020860161230e565b61191481612400565b840191505092915050565b600061192a826121d4565b61193481856121f0565b935061194481856020860161230e565b61194d81612400565b840191505092915050565b60006119656032836121f0565b91507f4552433732313a207472616e7366657220746f206e6f6e20455243373231526560008301527f63656976657220696d706c656d656e74657200000000000000000000000000006020830152604082019050919050565b60006119cb601c836121f0565b91507f4552433732313a20746f6b656e20616c7265616479206d696e746564000000006000830152602082019050919050565b6000611a0b6024836121f0565b91507f4552433732313a207472616e7366657220746f20746865207a65726f2061646460008301527f72657373000000000000000000000000000000000000000000000000000000006020830152604082019050919050565b6000611a716019836121f0565b91507f4552433732313a20617070726f766520746f2063616c6c6572000000000000006000830152602082019050919050565b6000611ab1602c836121f0565b91507f4552433732313a206f70657261746f7220717565727920666f72206e6f6e657860008301527f697374656e7420746f6b656e00000000000000000000000000000000000000006020830152604082019050919050565b6000611b176038836121f0565b91507f4552433732313a20617070726f76652063616c6c6572206973206e6f74206f7760008301527f6e6572206e6f7220617070726f76656420666f7220616c6c00000000000000006020830152604082019050919050565b6000611b7d602a836121f0565b91507f4552433732313a2062616c616e636520717565727920666f7220746865207a6560008301527f726f2061646472657373000000000000000000000000000000000000000000006020830152604082019050919050565b6000611be36029836121f0565b91507f4552433732313a206f776e657220717565727920666f72206e6f6e657869737460008301527f656e7420746f6b656e00000000000000000000000000000000000000000000006020830152604082019050919050565b6000611c496020836121f0565b91507f4552433732313a206d696e7420746f20746865207a65726f20616464726573736000830152602082019050919050565b6000611c89601d836121f0565b91507f6f6e6c7920746865206d616e616765722063616e207a6163686d696e740000006000830152602082019050919050565b6000611cc9602c836121f0565b91507f4552433732313a20617070726f76656420717565727920666f72206e6f6e657860008301527f697374656e7420746f6b656e00000000000000000000000000000000000000006020830152604082019050919050565b6000611d2f6029836121f0565b91507f4552433732313a207472616e73666572206f6620746f6b656e2074686174206960008301527f73206e6f74206f776e00000000000000000000000000000000000000000000006020830152604082019050919050565b6000611d95602f836121f0565b91507f4552433732314d657461646174613a2055524920717565727920666f72206e6f60008301527f6e6578697374656e7420746f6b656e00000000000000000000000000000000006020830152604082019050919050565b6000611dfb6021836121f0565b91507f4552433732313a20617070726f76616c20746f2063757272656e74206f776e6560008301527f72000000000000000000000000000000000000000000000000000000000000006020830152604082019050919050565b6000611e616031836121f0565b91507f4552433732313a207472616e736665722063616c6c6572206973206e6f74206f60008301527f776e6572206e6f7220617070726f7665640000000000000000000000000000006020830152604082019050919050565b611ec3816122f5565b82525050565b6000602082019050611ede60008301846118c8565b92915050565b6000608082019050611ef960008301876118c8565b611f0660208301866118c8565b611f136040830185611eba565b8181036060830152611f2581846118e6565b905095945050505050565b6000602082019050611f4560008301846118d7565b92915050565b60006020820190508181036000830152611f65818461191f565b905092915050565b60006020820190508181036000830152611f8681611958565b9050919050565b60006020820190508181036000830152611fa6816119be565b9050919050565b60006020820190508181036000830152611fc6816119fe565b9050919050565b60006020820190508181036000830152611fe681611a64565b9050919050565b6000602082019050818103600083015261200681611aa4565b9050919050565b6000602082019050818103600083015261202681611b0a565b9050919050565b6000602082019050818103600083015261204681611b70565b9050919050565b6000602082019050818103600083015261206681611bd6565b9050919050565b6000602082019050818103600083015261208681611c3c565b9050919050565b600060208201905081810360008301526120a681611c7c565b9050919050565b600060208201905081810360008301526120c681611cbc565b9050919050565b600060208201905081810360008301526120e681611d22565b9050919050565b6000602082019050818103600083015261210681611d88565b9050919050565b6000602082019050818103600083015261212681611dee565b9050919050565b6000602082019050818103600083015261214681611e54565b9050919050565b60006020820190506121626000830184611eba565b92915050565b6000604051905081810181811067ffffffffffffffff8211171561218f5761218e6123d1565b5b8060405250919050565b600067ffffffffffffffff8211156121b4576121b36123d1565b5b601f19601f8301169050602081019050919050565b600081519050919050565b600081519050919050565b600082825260208201905092915050565b600082825260208201905092915050565b600061220c826122f5565b9150612217836122f5565b9250827fffffffffffffffffffffffffffffffffffffffffffffffffffffffffffffffff0382111561224c5761224b612373565b5b828201905092915050565b6000612262826122f5565b915061226d836122f5565b9250828210156122805761227f612373565b5b828203905092915050565b6000612296826122d5565b9050919050565b60008115159050919050565b60007fffffffff0000000000000000000000000000000000000000000000000000000082169050919050565b600073ffffffffffffffffffffffffffffffffffffffff82169050919050565b6000819050919050565b82818337600083830152505050565b60005b8381101561232c578082015181840152602081019050612311565b8381111561233b576000848401525b50505050565b6000600282049050600182168061235957607f821691505b6020821081141561236d5761236c6123a2565b5b50919050565b7f4e487b7100000000000000000000000000000000000000000000000000000000600052601160045260246000fd5b7f4e487b7100000000000000000000000000000000000000000000000000000000600052602260045260246000fd5b7f4e487b7100000000000000000000000000000000000000000000000000000000600052604160045260246000fd5b6000601f19601f8301169050919050565b61241a8161228b565b811461242557600080fd5b50565b6124318161229d565b811461243c57600080fd5b50565b612448816122a9565b811461245357600080fd5b50565b61245f816122f5565b811461246a57600080fd5b5056fea26469706673582212203d6bf62c69356b8fb5c2ddf61fea18c500af3a5517d738f74907b8ca99ecf1be64736f6c63430008000033",
  "linkReferences": {},
  "deployedLinkReferences": {}
}