{
  "_format": "hh-sol-artifact-1",
  "contractName": "SimpleERC721",
  "sourceName": "contracts/SimpleERC721.sol",
  "abi": [
    {
      "inputs": [
        {
          "internalType": "string",
          "name": "name_",
          "type": "string"
        },
        {
          "internalType": "string",
          "name": "symbol_",
          "type": "string"
        },
        {
          "internalType": "string",
          "name": "URI_",
          "type": "string"
        }
      ],
      "stateMutability": "nonpayable",
      "type": "constructor"
    },
    {
      "anonymous": false,
      "inputs": [
        {
          "indexed": true,
          "internalType": "address",
          "name": "owner",
          "type": "address"
        },
        {
          "indexed": true,
          "internalType": "address",
          "name": "approved",
          "type": "address"
        },
        {
          "indexed": true,
          "internalType": "uint256",
          "name": "tokenId",
          "type": "uint256"
        }
      ],
      "name": "Approval",
      "type": "event"
    },
    {
      "anonymous": false,
      "inputs": [
        {
          "indexed": true,
          "internalType": "address",
          "name": "owner",
          "type": "address"
        },
        {
          "indexed": true,
          "internalType": "address",
          "name": "operator",
          "type": "address"
        },
        {
          "indexed": false,
          "internalType": "bool",
          "name": "approved",
          "type": "bool"
        }
      ],
      "name": "ApprovalForAll",
      "type": "event"
    },
    {
      "anonymous": false,
      "inputs": [
        {
          "indexed": true,
          "internalType": "address",
          "name": "from",
          "type": "address"
        },
        {
          "indexed": true,
          "internalType": "address",
          "name": "to",
          "type": "address"
        },
        {
          "indexed": true,
          "internalType": "uint256",
          "name": "tokenId",
          "type": "uint256"
        }
      ],
      "name": "Transfer",
      "type": "event"
    },
    {
      "inputs": [
        {
          "internalType": "address",
          "name": "to",
          "type": "address"
        },
        {
          "internalType": "uint256",
          "name": "tokenId",
          "type": "uint256"
        }
      ],
      "name": "approve",
      "outputs": [],
      "stateMutability": "nonpayable",
      "type": "function"
    },
    {
      "inputs": [
        {
          "internalType": "address",
          "name": "owner",
          "type": "address"
        }
      ],
      "name": "balanceOf",
      "outputs": [
        {
          "internalType": "uint256",
          "name": "",
          "type": "uint256"
        }
      ],
      "stateMutability": "view",
      "type": "function"
    },
    {
      "inputs": [],
      "name": "creator",
      "outputs": [
        {
          "internalType": "address",
          "name": "",
          "type": "address"
        }
      ],
      "stateMutability": "view",
      "type": "function"
    },
    {
      "inputs": [
        {
          "internalType": "uint256",
          "name": "tokenId",
          "type": "uint256"
        }
      ],
      "name": "getApproved",
      "outputs": [
        {
          "internalType": "address",
          "name": "",
          "type": "address"
        }
      ],
      "stateMutability": "view",
      "type": "function"
    },
    {
      "inputs": [
        {
          "internalType": "address",
          "name": "to",
          "type": "address"
        },
        {
          "internalType": "uint256",
          "name": "tokenId",
          "type": "uint256"
        }
      ],
      "name": "initialMint",
      "outputs": [],
      "stateMutability": "nonpayable",
      "type": "function"
    },
    {
      "inputs": [
        {
          "internalType": "address",
          "name": "owner",
          "type": "address"
        },
        {
          "internalType": "address",
          "name": "operator",
          "type": "address"
        }
      ],
      "name": "isApprovedForAll",
      "outputs": [
        {
          "internalType": "bool",
          "name": "",
          "type": "bool"
        }
      ],
      "stateMutability": "view",
      "type": "function"
    },
    {
      "inputs": [],
      "name": "manager",
      "outputs": [
        {
          "internalType": "address",
          "name": "",
          "type": "address"
        }
      ],
      "stateMutability": "view",
      "type": "function"
    },
    {
      "inputs": [],
      "name": "name",
      "outputs": [
        {
          "internalType": "string",
          "name": "",
          "type": "string"
        }
      ],
      "stateMutability": "view",
      "type": "function"
    },
    {
      "inputs": [
        {
          "internalType": "uint256",
          "name": "tokenId",
          "type": "uint256"
        }
      ],
      "name": "ownerOf",
      "outputs": [
        {
          "internalType": "address",
          "name": "",
          "type": "address"
        }
      ],
      "stateMutability": "view",
      "type": "function"
    },
    {
      "inputs": [
        {
          "internalType": "uint256",
          "name": "_tokenId",
          "type": "uint256"
        },
        {
          "internalType": "uint256",
          "name": "_salePrice",
          "type": "uint256"
        }
      ],
      "name": "royaltyInfo",
      "outputs": [
        {
          "internalType": "address",
          "name": "receiver",
          "type": "address"
        },
        {
          "internalType": "uint256",
          "name": "royaltyAmount",
          "type": "uint256"
        }
      ],
      "stateMutability": "view",
      "type": "function"
    },
    {
      "inputs": [],
      "name": "royaltyRate",
      "outputs": [
        {
          "internalType": "uint8",
          "name": "",
          "type": "uint8"
        }
      ],
      "stateMutability": "view",
      "type": "function"
    },
    {
      "inputs": [
        {
          "internalType": "address",
          "name": "from",
          "type": "address"
        },
        {
          "internalType": "address",
          "name": "to",
          "type": "address"
        },
        {
          "internalType": "uint256",
          "name": "tokenId",
          "type": "uint256"
        }
      ],
      "name": "safeTransferFrom",
      "outputs": [],
      "stateMutability": "nonpayable",
      "type": "function"
    },
    {
      "inputs": [
        {
          "internalType": "address",
          "name": "from",
          "type": "address"
        },
        {
          "internalType": "address",
          "name": "to",
          "type": "address"
        },
        {
          "internalType": "uint256",
          "name": "tokenId",
          "type": "uint256"
        },
        {
          "internalType": "bytes",
          "name": "_data",
          "type": "bytes"
        }
      ],
      "name": "safeTransferFrom",
      "outputs": [],
      "stateMutability": "nonpayable",
      "type": "function"
    },
    {
      "inputs": [
        {
          "internalType": "address",
          "name": "operator",
          "type": "address"
        },
        {
          "internalType": "bool",
          "name": "approved",
          "type": "bool"
        }
      ],
      "name": "setApprovalForAll",
      "outputs": [],
      "stateMutability": "nonpayable",
      "type": "function"
    },
    {
      "inputs": [
        {
          "internalType": "bytes4",
          "name": "interfaceId",
          "type": "bytes4"
        }
      ],
      "name": "supportsInterface",
      "outputs": [
        {
          "internalType": "bool",
          "name": "",
          "type": "bool"
        }
      ],
      "stateMutability": "view",
      "type": "function"
    },
    {
      "inputs": [],
      "name": "symbol",
      "outputs": [
        {
          "internalType": "string",
          "name": "",
          "type": "string"
        }
      ],
      "stateMutability": "view",
      "type": "function"
    },
    {
      "inputs": [
        {
          "internalType": "uint256",
          "name": "tokenId",
          "type": "uint256"
        }
      ],
      "name": "tokenURI",
      "outputs": [
        {
          "internalType": "string",
          "name": "",
          "type": "string"
        }
      ],
      "stateMutability": "view",
      "type": "function"
    },
    {
      "inputs": [
        {
          "internalType": "address",
          "name": "from",
          "type": "address"
        },
        {
          "internalType": "address",
          "name": "to",
          "type": "address"
        },
        {
          "internalType": "uint256",
          "name": "tokenId",
          "type": "uint256"
        }
      ],
      "name": "transferFrom",
      "outputs": [],
      "stateMutability": "nonpayable",
      "type": "function"
    }
  ],
  "bytecode": "0x60806040526014600860016101000a81548160ff021916908360ff16021790555073f39fd6e51aad88f6f4ce6ab8827279cfffb92266600860026101000a81548173ffffffffffffffffffffffffffffffffffffffff021916908373ffffffffffffffffffffffffffffffffffffffff1602179055503480156200008257600080fd5b5060405162002cf138038062002cf18339818101604052810190620000a8919062000263565b82828160009080519060200190620000c292919062000141565b508060019080519060200190620000db92919062000141565b5050508060079080519060200190620000f692919062000141565b5033600660006101000a81548173ffffffffffffffffffffffffffffffffffffffff021916908373ffffffffffffffffffffffffffffffffffffffff16021790555050505062000435565b8280546200014f90620003a1565b90600052602060002090601f016020900481019282620001735760008555620001bf565b82601f106200018e57805160ff1916838001178555620001bf565b82800160010185558215620001bf579182015b82811115620001be578251825591602001919060010190620001a1565b5b509050620001ce9190620001d2565b5090565b5b80821115620001ed576000816000905550600101620001d3565b5090565b600062000208620002028462000338565b62000304565b9050828152602081018484840111156200022157600080fd5b6200022e8482856200036b565b509392505050565b600082601f8301126200024857600080fd5b81516200025a848260208601620001f1565b91505092915050565b6000806000606084860312156200027957600080fd5b600084015167ffffffffffffffff8111156200029457600080fd5b620002a28682870162000236565b935050602084015167ffffffffffffffff811115620002c057600080fd5b620002ce8682870162000236565b925050604084015167ffffffffffffffff811115620002ec57600080fd5b620002fa8682870162000236565b9150509250925092565b6000604051905081810181811067ffffffffffffffff821117156200032e576200032d62000406565b5b8060405250919050565b600067ffffffffffffffff82111562000356576200035562000406565b5b601f19601f8301169050602081019050919050565b60005b838110156200038b5780820151818401526020810190506200036e565b838111156200039b576000848401525b50505050565b60006002820490506001821680620003ba57607f821691505b60208210811415620003d157620003d0620003d7565b5b50919050565b7f4e487b7100000000000000000000000000000000000000000000000000000000600052602260045260246000fd5b7f4e487b7100000000000000000000000000000000000000000000000000000000600052604160045260246000fd5b6128ac80620004456000396000f3fe608060405234801561001057600080fd5b50600436106101165760003560e01c80636352211e116100a2578063a22cb46511610071578063a22cb465146102f4578063b88d4fde14610310578063c4d1510d1461032c578063c87b56dd1461034a578063e985e9c51461037a57610116565b80636352211e1461025a5780636d8d0ff31461028a57806370a08231146102a657806395d89b41146102d657610116565b8063095ea7b3116100e9578063095ea7b3146101b757806323b872dd146101d35780632a55205a146101ef57806342842e0e14610220578063481c6a751461023c57610116565b806301ffc9a71461011b57806302d05d3f1461014b57806306fdde0314610169578063081812fc14610187575b600080fd5b61013560048036038101906101309190611a76565b6103aa565b604051610142919061220d565b60405180910390f35b610153610424565b604051610160919061217d565b60405180910390f35b61017161044a565b60405161017e9190612228565b60405180910390f35b6101a1600480360381019061019c9190611ac8565b6104dc565b6040516101ae919061217d565b60405180910390f35b6101d160048036038101906101cc9190611a3a565b610561565b005b6101ed60048036038101906101e89190611934565b610679565b005b61020960048036038101906102049190611af1565b6106d9565b6040516102179291906121e4565b60405180910390f35b61023a60048036038101906102359190611934565b610734565b005b610244610754565b604051610251919061217d565b60405180910390f35b610274600480360381019061026f9190611ac8565b61077a565b604051610281919061217d565b60405180910390f35b6102a4600480360381019061029f9190611a3a565b61082c565b005b6102c060048036038101906102bb91906118cf565b610967565b6040516102cd919061244a565b60405180910390f35b6102de610a1f565b6040516102eb9190612228565b60405180910390f35b61030e600480360381019061030991906119fe565b610ab1565b005b61032a60048036038101906103259190611983565b610c32565b005b610334610c94565b6040516103419190612465565b60405180910390f35b610364600480360381019061035f9190611ac8565b610ca7565b6040516103719190612228565b60405180910390f35b610394600480360381019061038f91906118f8565b610d83565b6040516103a1919061220d565b60405180910390f35b60007f2a55205a000000000000000000000000000000000000000000000000000000007bffffffffffffffffffffffffffffffffffffffffffffffffffffffff1916827bffffffffffffffffffffffffffffffffffffffffffffffffffffffff1916148061041d575061041c82610e17565b5b9050919050565b600860029054906101000a900473ffffffffffffffffffffffffffffffffffffffff1681565b606060008054610459906126f1565b80601f0160208091040260200160405190810160405280929190818152602001828054610485906126f1565b80156104d25780601f106104a7576101008083540402835291602001916104d2565b820191906000526020600020905b8154815290600101906020018083116104b557829003601f168201915b5050505050905090565b60006104e782610ef9565b610526576040517f08c379a000000000000000000000000000000000000000000000000000000000815260040161051d9061238a565b60405180910390fd5b6004600083815260200190815260200160002060009054906101000a900473ffffffffffffffffffffffffffffffffffffffff169050919050565b600061056c8261077a565b90508073ffffffffffffffffffffffffffffffffffffffff168373ffffffffffffffffffffffffffffffffffffffff1614156105dd576040517f08c379a00000000000000000000000000000000000000000000000000000000081526004016105d4906123ea565b60405180910390fd5b8073ffffffffffffffffffffffffffffffffffffffff166105fc610f65565b73ffffffffffffffffffffffffffffffffffffffff16148061062b575061062a81610625610f65565b610d83565b5b61066a576040517f08c379a00000000000000000000000000000000000000000000000000000000081526004016106619061230a565b60405180910390fd5b6106748383610f6d565b505050565b61068a610684610f65565b82611026565b6106c9576040517f08c379a00000000000000000000000000000000000000000000000000000000081526004016106c09061240a565b60405180910390fd5b6106d4838383611104565b505050565b600080600860029054906101000a900473ffffffffffffffffffffffffffffffffffffffff16606484600860019054906101000a900460ff1660ff1661071f91906125a0565b610729919061256f565b915091509250929050565b61074f83838360405180602001604052806000815250610c32565b505050565b600660009054906101000a900473ffffffffffffffffffffffffffffffffffffffff1681565b6000806002600084815260200190815260200160002060009054906101000a900473ffffffffffffffffffffffffffffffffffffffff169050600073ffffffffffffffffffffffffffffffffffffffff168173ffffffffffffffffffffffffffffffffffffffff161415610823576040517f08c379a000000000000000000000000000000000000000000000000000000000815260040161081a9061234a565b60405180910390fd5b80915050919050565b600660009054906101000a900473ffffffffffffffffffffffffffffffffffffffff1673ffffffffffffffffffffffffffffffffffffffff163373ffffffffffffffffffffffffffffffffffffffff16146108bc576040517f08c379a00000000000000000000000000000000000000000000000000000000081526004016108b39061242a565b60405180910390fd5b6000600860009054906101000a900460ff1660ff1614610911576040517f08c379a0000000000000000000000000000000000000000000000000000000008152600401610908906123ca565b60405180910390fd5b61092b828260405180602001604052806000815250611360565b6008600081819054906101000a900460ff168092919061094a90612723565b91906101000a81548160ff021916908360ff160217905550505050565b60008073ffffffffffffffffffffffffffffffffffffffff168273ffffffffffffffffffffffffffffffffffffffff1614156109d8576040517f08c379a00000000000000000000000000000000000000000000000000000000081526004016109cf9061232a565b60405180910390fd5b600360008373ffffffffffffffffffffffffffffffffffffffff1673ffffffffffffffffffffffffffffffffffffffff168152602001908152602001600020549050919050565b606060018054610a2e906126f1565b80601f0160208091040260200160405190810160405280929190818152602001828054610a5a906126f1565b8015610aa75780601f10610a7c57610100808354040283529160200191610aa7565b820191906000526020600020905b815481529060010190602001808311610a8a57829003601f168201915b5050505050905090565b610ab9610f65565b73ffffffffffffffffffffffffffffffffffffffff168273ffffffffffffffffffffffffffffffffffffffff161415610b27576040517f08c379a0000000000000000000000000000000000000000000000000000000008152600401610b1e906122ca565b60405180910390fd5b8060056000610b34610f65565b73ffffffffffffffffffffffffffffffffffffffff1673ffffffffffffffffffffffffffffffffffffffff16815260200190815260200160002060008473ffffffffffffffffffffffffffffffffffffffff1673ffffffffffffffffffffffffffffffffffffffff16815260200190815260200160002060006101000a81548160ff0219169083151502179055508173ffffffffffffffffffffffffffffffffffffffff16610be1610f65565b73ffffffffffffffffffffffffffffffffffffffff167f17307eab39ab6107e8899845ad3d59bd9653f200f220920489ca2b5937696c3183604051610c26919061220d565b60405180910390a35050565b610c43610c3d610f65565b83611026565b610c82576040517f08c379a0000000000000000000000000000000000000000000000000000000008152600401610c799061240a565b60405180910390fd5b610c8e848484846113bb565b50505050565b600860019054906101000a900460ff1681565b6060610cb282610ef9565b610cf1576040517f08c379a0000000000000000000000000000000000000000000000000000000008152600401610ce89061224a565b60405180910390fd5b60078054610cfe906126f1565b80601f0160208091040260200160405190810160405280929190818152602001828054610d2a906126f1565b8015610d775780601f10610d4c57610100808354040283529160200191610d77565b820191906000526020600020905b815481529060010190602001808311610d5a57829003601f168201915b50505050509050919050565b6000600560008473ffffffffffffffffffffffffffffffffffffffff1673ffffffffffffffffffffffffffffffffffffffff16815260200190815260200160002060008373ffffffffffffffffffffffffffffffffffffffff1673ffffffffffffffffffffffffffffffffffffffff16815260200190815260200160002060009054906101000a900460ff16905092915050565b60007f80ac58cd000000000000000000000000000000000000000000000000000000007bffffffffffffffffffffffffffffffffffffffffffffffffffffffff1916827bffffffffffffffffffffffffffffffffffffffffffffffffffffffff19161480610ee257507f5b5e139f000000000000000000000000000000000000000000000000000000007bffffffffffffffffffffffffffffffffffffffffffffffffffffffff1916827bffffffffffffffffffffffffffffffffffffffffffffffffffffffff1916145b80610ef25750610ef182611417565b5b9050919050565b60008073ffffffffffffffffffffffffffffffffffffffff166002600084815260200190815260200160002060009054906101000a900473ffffffffffffffffffffffffffffffffffffffff1673ffffffffffffffffffffffffffffffffffffffff1614159050919050565b600033905090565b816004600083815260200190815260200160002060006101000a81548173ffffffffffffffffffffffffffffffffffffffff021916908373ffffffffffffffffffffffffffffffffffffffff160217905550808273ffffffffffffffffffffffffffffffffffffffff16610fe08361077a565b73ffffffffffffffffffffffffffffffffffffffff167f8c5be1e5ebec7d5bd14f71427d1e84f3dd0314c0f7b2291e5b200ac8c7c3b92560405160405180910390a45050565b600061103182610ef9565b611070576040517f08c379a0000000000000000000000000000000000000000000000000000000008152600401611067906122ea565b60405180910390fd5b600061107b8361077a565b90508073ffffffffffffffffffffffffffffffffffffffff168473ffffffffffffffffffffffffffffffffffffffff1614806110ea57508373ffffffffffffffffffffffffffffffffffffffff166110d2846104dc565b73ffffffffffffffffffffffffffffffffffffffff16145b806110fb57506110fa8185610d83565b5b91505092915050565b8273ffffffffffffffffffffffffffffffffffffffff166111248261077a565b73ffffffffffffffffffffffffffffffffffffffff161461117a576040517f08c379a0000000000000000000000000000000000000000000000000000000008152600401611171906123aa565b60405180910390fd5b600073ffffffffffffffffffffffffffffffffffffffff168273ffffffffffffffffffffffffffffffffffffffff1614156111ea576040517f08c379a00000000000000000000000000000000000000000000000000000000081526004016111e1906122aa565b60405180910390fd5b6111f5838383611481565b611200600082610f6d565b6001600360008573ffffffffffffffffffffffffffffffffffffffff1673ffffffffffffffffffffffffffffffffffffffff168152602001908152602001600020600082825461125091906125fa565b925050819055506001600360008473ffffffffffffffffffffffffffffffffffffffff1673ffffffffffffffffffffffffffffffffffffffff16815260200190815260200160002060008282546112a79190612519565b92505081905550816002600083815260200190815260200160002060006101000a81548173ffffffffffffffffffffffffffffffffffffffff021916908373ffffffffffffffffffffffffffffffffffffffff160217905550808273ffffffffffffffffffffffffffffffffffffffff168473ffffffffffffffffffffffffffffffffffffffff167fddf252ad1be2c89b69c2b068fc378daa952ba7f163c4a11628f55a4df523b3ef60405160405180910390a4505050565b61136a8383611486565b6113776000848484611654565b6113b6576040517f08c379a00000000000000000000000000000000000000000000000000000000081526004016113ad9061226a565b60405180910390fd5b505050565b6113c6848484611104565b6113d284848484611654565b611411576040517f08c379a00000000000000000000000000000000000000000000000000000000081526004016114089061226a565b60405180910390fd5b50505050565b60007f01ffc9a7000000000000000000000000000000000000000000000000000000007bffffffffffffffffffffffffffffffffffffffffffffffffffffffff1916827bffffffffffffffffffffffffffffffffffffffffffffffffffffffff1916149050919050565b505050565b600073ffffffffffffffffffffffffffffffffffffffff168273ffffffffffffffffffffffffffffffffffffffff1614156114f6576040517f08c379a00000000000000000000000000000000000000000000000000000000081526004016114ed9061236a565b60405180910390fd5b6114ff81610ef9565b1561153f576040517f08c379a00000000000000000000000000000000000000000000000000000000081526004016115369061228a565b60405180910390fd5b61154b60008383611481565b6001600360008473ffffffffffffffffffffffffffffffffffffffff1673ffffffffffffffffffffffffffffffffffffffff168152602001908152602001600020600082825461159b9190612519565b92505081905550816002600083815260200190815260200160002060006101000a81548173ffffffffffffffffffffffffffffffffffffffff021916908373ffffffffffffffffffffffffffffffffffffffff160217905550808273ffffffffffffffffffffffffffffffffffffffff16600073ffffffffffffffffffffffffffffffffffffffff167fddf252ad1be2c89b69c2b068fc378daa952ba7f163c4a11628f55a4df523b3ef60405160405180910390a45050565b60006116758473ffffffffffffffffffffffffffffffffffffffff166117eb565b156117de578373ffffffffffffffffffffffffffffffffffffffff1663150b7a0261169e610f65565b8786866040518563ffffffff1660e01b81526004016116c09493929190612198565b602060405180830381600087803b1580156116da57600080fd5b505af192505050801561170b57506040513d601f19601f820116820180604052508101906117089190611a9f565b60015b61178e573d806000811461173b576040519150601f19603f3d011682016040523d82523d6000602084013e611740565b606091505b50600081511415611786576040517f08c379a000000000000000000000000000000000000000000000000000000000815260040161177d9061226a565b60405180910390fd5b805181602001fd5b63150b7a0260e01b7bffffffffffffffffffffffffffffffffffffffffffffffffffffffff1916817bffffffffffffffffffffffffffffffffffffffffffffffffffffffff1916149150506117e3565b600190505b949350505050565b600080823b905060008111915050919050565b600061181161180c846124b1565b612480565b90508281526020810184848401111561182957600080fd5b6118348482856126af565b509392505050565b60008135905061184b8161281a565b92915050565b60008135905061186081612831565b92915050565b60008135905061187581612848565b92915050565b60008151905061188a81612848565b92915050565b600082601f8301126118a157600080fd5b81356118b18482602086016117fe565b91505092915050565b6000813590506118c98161285f565b92915050565b6000602082840312156118e157600080fd5b60006118ef8482850161183c565b91505092915050565b6000806040838503121561190b57600080fd5b60006119198582860161183c565b925050602061192a8582860161183c565b9150509250929050565b60008060006060848603121561194957600080fd5b60006119578682870161183c565b93505060206119688682870161183c565b9250506040611979868287016118ba565b9150509250925092565b6000806000806080858703121561199957600080fd5b60006119a78782880161183c565b94505060206119b88782880161183c565b93505060406119c9878288016118ba565b925050606085013567ffffffffffffffff8111156119e657600080fd5b6119f287828801611890565b91505092959194509250565b60008060408385031215611a1157600080fd5b6000611a1f8582860161183c565b9250506020611a3085828601611851565b9150509250929050565b60008060408385031215611a4d57600080fd5b6000611a5b8582860161183c565b9250506020611a6c858286016118ba565b9150509250929050565b600060208284031215611a8857600080fd5b6000611a9684828501611866565b91505092915050565b600060208284031215611ab157600080fd5b6000611abf8482850161187b565b91505092915050565b600060208284031215611ada57600080fd5b6000611ae8848285016118ba565b91505092915050565b60008060408385031215611b0457600080fd5b6000611b12858286016118ba565b9250506020611b23858286016118ba565b9150509250929050565b611b368161262e565b82525050565b611b4581612640565b82525050565b6000611b56826124e1565b611b6081856124f7565b9350611b708185602086016126be565b611b7981612809565b840191505092915050565b6000611b8f826124ec565b611b998185612508565b9350611ba98185602086016126be565b611bb281612809565b840191505092915050565b6000611bca603f83612508565b91507f4552433732314d657461646174613a2055524920717565727920666f72206e6f60008301527f6e6578697374656e7420746f6b656e20286f6e6c7920302065786973747329006020830152604082019050919050565b6000611c30603283612508565b91507f4552433732313a207472616e7366657220746f206e6f6e20455243373231526560008301527f63656976657220696d706c656d656e74657200000000000000000000000000006020830152604082019050919050565b6000611c96601c83612508565b91507f4552433732313a20746f6b656e20616c7265616479206d696e746564000000006000830152602082019050919050565b6000611cd6602483612508565b91507f4552433732313a207472616e7366657220746f20746865207a65726f2061646460008301527f72657373000000000000000000000000000000000000000000000000000000006020830152604082019050919050565b6000611d3c601983612508565b91507f4552433732313a20617070726f766520746f2063616c6c6572000000000000006000830152602082019050919050565b6000611d7c602c83612508565b91507f4552433732313a206f70657261746f7220717565727920666f72206e6f6e657860008301527f697374656e7420746f6b656e00000000000000000000000000000000000000006020830152604082019050919050565b6000611de2603883612508565b91507f4552433732313a20617070726f76652063616c6c6572206973206e6f74206f7760008301527f6e6572206e6f7220617070726f76656420666f7220616c6c00000000000000006020830152604082019050919050565b6000611e48602a83612508565b91507f4552433732313a2062616c616e636520717565727920666f7220746865207a6560008301527f726f2061646472657373000000000000000000000000000000000000000000006020830152604082019050919050565b6000611eae602983612508565b91507f4552433732313a206f776e657220717565727920666f72206e6f6e657869737460008301527f656e7420746f6b656e00000000000000000000000000000000000000000000006020830152604082019050919050565b6000611f14602083612508565b91507f4552433732313a206d696e7420746f20746865207a65726f20616464726573736000830152602082019050919050565b6000611f54602c83612508565b91507f4552433732313a20617070726f76656420717565727920666f72206e6f6e657860008301527f697374656e7420746f6b656e00000000000000000000000000000000000000006020830152604082019050919050565b6000611fba602983612508565b91507f4552433732313a207472616e73666572206f6620746f6b656e2074686174206960008301527f73206e6f74206f776e00000000000000000000000000000000000000000000006020830152604082019050919050565b6000612020601483612508565b91507f746f6b656e20616c7265616479206d696e7465640000000000000000000000006000830152602082019050919050565b6000612060602183612508565b91507f4552433732313a20617070726f76616c20746f2063757272656e74206f776e6560008301527f72000000000000000000000000000000000000000000000000000000000000006020830152604082019050919050565b60006120c6603183612508565b91507f4552433732313a207472616e736665722063616c6c6572206973206e6f74206f60008301527f776e6572206e6f7220617070726f7665640000000000000000000000000000006020830152604082019050919050565b600061212c601983612508565b91507f6f6e6c7920746865206d616e616765722063616e206d696e74000000000000006000830152602082019050919050565b61216881612698565b82525050565b612177816126a2565b82525050565b60006020820190506121926000830184611b2d565b92915050565b60006080820190506121ad6000830187611b2d565b6121ba6020830186611b2d565b6121c7604083018561215f565b81810360608301526121d98184611b4b565b905095945050505050565b60006040820190506121f96000830185611b2d565b612206602083018461215f565b9392505050565b60006020820190506122226000830184611b3c565b92915050565b600060208201905081810360008301526122428184611b84565b905092915050565b6000602082019050818103600083015261226381611bbd565b9050919050565b6000602082019050818103600083015261228381611c23565b9050919050565b600060208201905081810360008301526122a381611c89565b9050919050565b600060208201905081810360008301526122c381611cc9565b9050919050565b600060208201905081810360008301526122e381611d2f565b9050919050565b6000602082019050818103600083015261230381611d6f565b9050919050565b6000602082019050818103600083015261232381611dd5565b9050919050565b6000602082019050818103600083015261234381611e3b565b9050919050565b6000602082019050818103600083015261236381611ea1565b9050919050565b6000602082019050818103600083015261238381611f07565b9050919050565b600060208201905081810360008301526123a381611f47565b9050919050565b600060208201905081810360008301526123c381611fad565b9050919050565b600060208201905081810360008301526123e381612013565b9050919050565b6000602082019050818103600083015261240381612053565b9050919050565b60006020820190508181036000830152612423816120b9565b9050919050565b600060208201905081810360008301526124438161211f565b9050919050565b600060208201905061245f600083018461215f565b92915050565b600060208201905061247a600083018461216e565b92915050565b6000604051905081810181811067ffffffffffffffff821117156124a7576124a66127da565b5b8060405250919050565b600067ffffffffffffffff8211156124cc576124cb6127da565b5b601f19601f8301169050602081019050919050565b600081519050919050565b600081519050919050565b600082825260208201905092915050565b600082825260208201905092915050565b600061252482612698565b915061252f83612698565b9250827fffffffffffffffffffffffffffffffffffffffffffffffffffffffffffffffff038211156125645761256361274d565b5b828201905092915050565b600061257a82612698565b915061258583612698565b9250826125955761259461277c565b5b828204905092915050565b60006125ab82612698565b91506125b683612698565b9250817fffffffffffffffffffffffffffffffffffffffffffffffffffffffffffffffff04831182151516156125ef576125ee61274d565b5b828202905092915050565b600061260582612698565b915061261083612698565b9250828210156126235761262261274d565b5b828203905092915050565b600061263982612678565b9050919050565b60008115159050919050565b60007fffffffff0000000000000000000000000000000000000000000000000000000082169050919050565b600073ffffffffffffffffffffffffffffffffffffffff82169050919050565b6000819050919050565b600060ff82169050919050565b82818337600083830152505050565b60005b838110156126dc5780820151818401526020810190506126c1565b838111156126eb576000848401525b50505050565b6000600282049050600182168061270957607f821691505b6020821081141561271d5761271c6127ab565b5b50919050565b600061272e826126a2565b915060ff8214156127425761274161274d565b5b600182019050919050565b7f4e487b7100000000000000000000000000000000000000000000000000000000600052601160045260246000fd5b7f4e487b7100000000000000000000000000000000000000000000000000000000600052601260045260246000fd5b7f4e487b7100000000000000000000000000000000000000000000000000000000600052602260045260246000fd5b7f4e487b7100000000000000000000000000000000000000000000000000000000600052604160045260246000fd5b6000601f19601f8301169050919050565b6128238161262e565b811461282e57600080fd5b50565b61283a81612640565b811461284557600080fd5b50565b6128518161264c565b811461285c57600080fd5b50565b61286881612698565b811461287357600080fd5b5056fea2646970667358221220cea85660364d5884de366bfa7fe616fb01401b1617af43cf407fadf2a3b3f51f64736f6c63430008000033",
  "linkReferences": {},
  "deployedLinkReferences": {}
}