{
  "_format": "hh-sol-artifact-1",
  "contractName": "SimpleERC721",
  "sourceName": "contracts/SimpleERC721.sol",
  "abi": [
    {
      "inputs": [
        {
          "internalType": "string",
          "name": "name_",
          "type": "string"
        },
        {
          "internalType": "string",
          "name": "symbol_",
          "type": "string"
        },
        {
          "internalType": "string",
          "name": "URI_",
          "type": "string"
        }
      ],
      "stateMutability": "nonpayable",
      "type": "constructor"
    },
    {
      "anonymous": false,
      "inputs": [
        {
          "indexed": true,
          "internalType": "address",
          "name": "owner",
          "type": "address"
        },
        {
          "indexed": true,
          "internalType": "address",
          "name": "approved",
          "type": "address"
        },
        {
          "indexed": true,
          "internalType": "uint256",
          "name": "tokenId",
          "type": "uint256"
        }
      ],
      "name": "Approval",
      "type": "event"
    },
    {
      "anonymous": false,
      "inputs": [
        {
          "indexed": true,
          "internalType": "address",
          "name": "owner",
          "type": "address"
        },
        {
          "indexed": true,
          "internalType": "address",
          "name": "operator",
          "type": "address"
        },
        {
          "indexed": false,
          "internalType": "bool",
          "name": "approved",
          "type": "bool"
        }
      ],
      "name": "ApprovalForAll",
      "type": "event"
    },
    {
      "anonymous": false,
      "inputs": [
        {
          "indexed": true,
          "internalType": "address",
          "name": "from",
          "type": "address"
        },
        {
          "indexed": true,
          "internalType": "address",
          "name": "to",
          "type": "address"
        },
        {
          "indexed": true,
          "internalType": "uint256",
          "name": "tokenId",
          "type": "uint256"
        }
      ],
      "name": "Transfer",
      "type": "event"
    },
    {
      "inputs": [
        {
          "internalType": "address",
          "name": "to",
          "type": "address"
        },
        {
          "internalType": "uint256",
          "name": "tokenId",
          "type": "uint256"
        }
      ],
      "name": "approve",
      "outputs": [],
      "stateMutability": "nonpayable",
      "type": "function"
    },
    {
      "inputs": [
        {
          "internalType": "address",
          "name": "owner",
          "type": "address"
        }
      ],
      "name": "balanceOf",
      "outputs": [
        {
          "internalType": "uint256",
          "name": "",
          "type": "uint256"
        }
      ],
      "stateMutability": "view",
      "type": "function"
    },
    {
      "inputs": [
        {
          "internalType": "uint256",
          "name": "tokenId",
          "type": "uint256"
        }
      ],
      "name": "getApproved",
      "outputs": [
        {
          "internalType": "address",
          "name": "",
          "type": "address"
        }
      ],
      "stateMutability": "view",
      "type": "function"
    },
    {
      "inputs": [
        {
          "internalType": "address",
          "name": "to",
          "type": "address"
        },
        {
          "internalType": "uint256",
          "name": "tokenId",
          "type": "uint256"
        }
      ],
      "name": "initialMint",
      "outputs": [],
      "stateMutability": "nonpayable",
      "type": "function"
    },
    {
      "inputs": [
        {
          "internalType": "address",
          "name": "owner",
          "type": "address"
        },
        {
          "internalType": "address",
          "name": "operator",
          "type": "address"
        }
      ],
      "name": "isApprovedForAll",
      "outputs": [
        {
          "internalType": "bool",
          "name": "",
          "type": "bool"
        }
      ],
      "stateMutability": "view",
      "type": "function"
    },
    {
      "inputs": [],
      "name": "manager",
      "outputs": [
        {
          "internalType": "address",
          "name": "",
          "type": "address"
        }
      ],
      "stateMutability": "view",
      "type": "function"
    },
    {
      "inputs": [],
      "name": "name",
      "outputs": [
        {
          "internalType": "string",
          "name": "",
          "type": "string"
        }
      ],
      "stateMutability": "view",
      "type": "function"
    },
    {
      "inputs": [
        {
          "internalType": "uint256",
          "name": "tokenId",
          "type": "uint256"
        }
      ],
      "name": "ownerOf",
      "outputs": [
        {
          "internalType": "address",
          "name": "",
          "type": "address"
        }
      ],
      "stateMutability": "view",
      "type": "function"
    },
    {
      "inputs": [
        {
          "internalType": "address",
          "name": "from",
          "type": "address"
        },
        {
          "internalType": "address",
          "name": "to",
          "type": "address"
        },
        {
          "internalType": "uint256",
          "name": "tokenId",
          "type": "uint256"
        }
      ],
      "name": "safeTransferFrom",
      "outputs": [],
      "stateMutability": "nonpayable",
      "type": "function"
    },
    {
      "inputs": [
        {
          "internalType": "address",
          "name": "from",
          "type": "address"
        },
        {
          "internalType": "address",
          "name": "to",
          "type": "address"
        },
        {
          "internalType": "uint256",
          "name": "tokenId",
          "type": "uint256"
        },
        {
          "internalType": "bytes",
          "name": "_data",
          "type": "bytes"
        }
      ],
      "name": "safeTransferFrom",
      "outputs": [],
      "stateMutability": "nonpayable",
      "type": "function"
    },
    {
      "inputs": [
        {
          "internalType": "address",
          "name": "operator",
          "type": "address"
        },
        {
          "internalType": "bool",
          "name": "approved",
          "type": "bool"
        }
      ],
      "name": "setApprovalForAll",
      "outputs": [],
      "stateMutability": "nonpayable",
      "type": "function"
    },
    {
      "inputs": [
        {
          "internalType": "bytes4",
          "name": "interfaceId",
          "type": "bytes4"
        }
      ],
      "name": "supportsInterface",
      "outputs": [
        {
          "internalType": "bool",
          "name": "",
          "type": "bool"
        }
      ],
      "stateMutability": "view",
      "type": "function"
    },
    {
      "inputs": [],
      "name": "symbol",
      "outputs": [
        {
          "internalType": "string",
          "name": "",
          "type": "string"
        }
      ],
      "stateMutability": "view",
      "type": "function"
    },
    {
      "inputs": [
        {
          "internalType": "uint256",
          "name": "tokenId",
          "type": "uint256"
        }
      ],
      "name": "tokenURI",
      "outputs": [
        {
          "internalType": "string",
          "name": "",
          "type": "string"
        }
      ],
      "stateMutability": "view",
      "type": "function"
    },
    {
      "inputs": [
        {
          "internalType": "address",
          "name": "from",
          "type": "address"
        },
        {
          "internalType": "address",
          "name": "to",
          "type": "address"
        },
        {
          "internalType": "uint256",
          "name": "tokenId",
          "type": "uint256"
        }
      ],
      "name": "transferFrom",
      "outputs": [],
      "stateMutability": "nonpayable",
      "type": "function"
    }
  ],
  "bytecode": "0x60806040523480156200001157600080fd5b506040516200299b3803806200299b8339818101604052810190620000379190620001f2565b8282816000908051906020019062000051929190620000d0565b5080600190805190602001906200006a929190620000d0565b505050806007908051906020019062000085929190620000d0565b5033600660006101000a81548173ffffffffffffffffffffffffffffffffffffffff021916908373ffffffffffffffffffffffffffffffffffffffff160217905550505050620003c4565b828054620000de9062000330565b90600052602060002090601f0160209004810192826200010257600085556200014e565b82601f106200011d57805160ff19168380011785556200014e565b828001600101855582156200014e579182015b828111156200014d57825182559160200191906001019062000130565b5b5090506200015d919062000161565b5090565b5b808211156200017c57600081600090555060010162000162565b5090565b6000620001976200019184620002c7565b62000293565b905082815260208101848484011115620001b057600080fd5b620001bd848285620002fa565b509392505050565b600082601f830112620001d757600080fd5b8151620001e984826020860162000180565b91505092915050565b6000806000606084860312156200020857600080fd5b600084015167ffffffffffffffff8111156200022357600080fd5b6200023186828701620001c5565b935050602084015167ffffffffffffffff8111156200024f57600080fd5b6200025d86828701620001c5565b925050604084015167ffffffffffffffff8111156200027b57600080fd5b6200028986828701620001c5565b9150509250925092565b6000604051905081810181811067ffffffffffffffff82111715620002bd57620002bc62000395565b5b8060405250919050565b600067ffffffffffffffff821115620002e557620002e462000395565b5b601f19601f8301169050602081019050919050565b60005b838110156200031a578082015181840152602081019050620002fd565b838111156200032a576000848401525b50505050565b600060028204905060018216806200034957607f821691505b6020821081141562000360576200035f62000366565b5b50919050565b7f4e487b7100000000000000000000000000000000000000000000000000000000600052602260045260246000fd5b7f4e487b7100000000000000000000000000000000000000000000000000000000600052604160045260246000fd5b6125c780620003d46000396000f3fe608060405234801561001057600080fd5b50600436106100f55760003560e01c80636352211e11610097578063a22cb46511610066578063a22cb46514610284578063b88d4fde146102a0578063c87b56dd146102bc578063e985e9c5146102ec576100f5565b80636352211e146101ea5780636d8d0ff31461021a57806370a082311461023657806395d89b4114610266576100f5565b8063095ea7b3116100d3578063095ea7b31461017857806323b872dd1461019457806342842e0e146101b0578063481c6a75146101cc576100f5565b806301ffc9a7146100fa57806306fdde031461012a578063081812fc14610148575b600080fd5b610114600480360381019061010f91906118da565b61031c565b6040516101219190611ffd565b60405180910390f35b6101326103fe565b60405161013f9190612018565b60405180910390f35b610162600480360381019061015d919061192c565b610490565b60405161016f9190611f96565b60405180910390f35b610192600480360381019061018d919061189e565b610515565b005b6101ae60048036038101906101a99190611798565b61062d565b005b6101ca60048036038101906101c59190611798565b61068d565b005b6101d46106ad565b6040516101e19190611f96565b60405180910390f35b61020460048036038101906101ff919061192c565b6106d3565b6040516102119190611f96565b60405180910390f35b610234600480360381019061022f919061189e565b610785565b005b610250600480360381019061024b9190611733565b6108c0565b60405161025d919061223a565b60405180910390f35b61026e610978565b60405161027b9190612018565b60405180910390f35b61029e60048036038101906102999190611862565b610a0a565b005b6102ba60048036038101906102b591906117e7565b610b8b565b005b6102d660048036038101906102d1919061192c565b610bed565b6040516102e39190612018565b60405180910390f35b6103066004803603810190610301919061175c565b610cc9565b6040516103139190611ffd565b60405180910390f35b60007f80ac58cd000000000000000000000000000000000000000000000000000000007bffffffffffffffffffffffffffffffffffffffffffffffffffffffff1916827bffffffffffffffffffffffffffffffffffffffffffffffffffffffff191614806103e757507f5b5e139f000000000000000000000000000000000000000000000000000000007bffffffffffffffffffffffffffffffffffffffffffffffffffffffff1916827bffffffffffffffffffffffffffffffffffffffffffffffffffffffff1916145b806103f757506103f682610d5d565b5b9050919050565b60606000805461040d9061243b565b80601f01602080910402602001604051908101604052809291908181526020018280546104399061243b565b80156104865780601f1061045b57610100808354040283529160200191610486565b820191906000526020600020905b81548152906001019060200180831161046957829003601f168201915b5050505050905090565b600061049b82610dc7565b6104da576040517f08c379a00000000000000000000000000000000000000000000000000000000081526004016104d19061217a565b60405180910390fd5b6004600083815260200190815260200160002060009054906101000a900473ffffffffffffffffffffffffffffffffffffffff169050919050565b6000610520826106d3565b90508073ffffffffffffffffffffffffffffffffffffffff168373ffffffffffffffffffffffffffffffffffffffff161415610591576040517f08c379a0000000000000000000000000000000000000000000000000000000008152600401610588906121da565b60405180910390fd5b8073ffffffffffffffffffffffffffffffffffffffff166105b0610e33565b73ffffffffffffffffffffffffffffffffffffffff1614806105df57506105de816105d9610e33565b610cc9565b5b61061e576040517f08c379a0000000000000000000000000000000000000000000000000000000008152600401610615906120fa565b60405180910390fd5b6106288383610e3b565b505050565b61063e610638610e33565b82610ef4565b61067d576040517f08c379a0000000000000000000000000000000000000000000000000000000008152600401610674906121fa565b60405180910390fd5b610688838383610fd2565b505050565b6106a883838360405180602001604052806000815250610b8b565b505050565b600660009054906101000a900473ffffffffffffffffffffffffffffffffffffffff1681565b6000806002600084815260200190815260200160002060009054906101000a900473ffffffffffffffffffffffffffffffffffffffff169050600073ffffffffffffffffffffffffffffffffffffffff168173ffffffffffffffffffffffffffffffffffffffff16141561077c576040517f08c379a00000000000000000000000000000000000000000000000000000000081526004016107739061213a565b60405180910390fd5b80915050919050565b600660009054906101000a900473ffffffffffffffffffffffffffffffffffffffff1673ffffffffffffffffffffffffffffffffffffffff163373ffffffffffffffffffffffffffffffffffffffff1614610815576040517f08c379a000000000000000000000000000000000000000000000000000000000815260040161080c9061221a565b60405180910390fd5b6000600860009054906101000a900460ff1660ff161461086a576040517f08c379a0000000000000000000000000000000000000000000000000000000008152600401610861906121ba565b60405180910390fd5b61088482826040518060200160405280600081525061122e565b6008600081819054906101000a900460ff16809291906108a39061246d565b91906101000a81548160ff021916908360ff160217905550505050565b60008073ffffffffffffffffffffffffffffffffffffffff168273ffffffffffffffffffffffffffffffffffffffff161415610931576040517f08c379a00000000000000000000000000000000000000000000000000000000081526004016109289061211a565b60405180910390fd5b600360008373ffffffffffffffffffffffffffffffffffffffff1673ffffffffffffffffffffffffffffffffffffffff168152602001908152602001600020549050919050565b6060600180546109879061243b565b80601f01602080910402602001604051908101604052809291908181526020018280546109b39061243b565b8015610a005780601f106109d557610100808354040283529160200191610a00565b820191906000526020600020905b8154815290600101906020018083116109e357829003601f168201915b5050505050905090565b610a12610e33565b73ffffffffffffffffffffffffffffffffffffffff168273ffffffffffffffffffffffffffffffffffffffff161415610a80576040517f08c379a0000000000000000000000000000000000000000000000000000000008152600401610a77906120ba565b60405180910390fd5b8060056000610a8d610e33565b73ffffffffffffffffffffffffffffffffffffffff1673ffffffffffffffffffffffffffffffffffffffff16815260200190815260200160002060008473ffffffffffffffffffffffffffffffffffffffff1673ffffffffffffffffffffffffffffffffffffffff16815260200190815260200160002060006101000a81548160ff0219169083151502179055508173ffffffffffffffffffffffffffffffffffffffff16610b3a610e33565b73ffffffffffffffffffffffffffffffffffffffff167f17307eab39ab6107e8899845ad3d59bd9653f200f220920489ca2b5937696c3183604051610b7f9190611ffd565b60405180910390a35050565b610b9c610b96610e33565b83610ef4565b610bdb576040517f08c379a0000000000000000000000000000000000000000000000000000000008152600401610bd2906121fa565b60405180910390fd5b610be784848484611289565b50505050565b6060610bf882610dc7565b610c37576040517f08c379a0000000000000000000000000000000000000000000000000000000008152600401610c2e9061203a565b60405180910390fd5b60078054610c449061243b565b80601f0160208091040260200160405190810160405280929190818152602001828054610c709061243b565b8015610cbd5780601f10610c9257610100808354040283529160200191610cbd565b820191906000526020600020905b815481529060010190602001808311610ca057829003601f168201915b50505050509050919050565b6000600560008473ffffffffffffffffffffffffffffffffffffffff1673ffffffffffffffffffffffffffffffffffffffff16815260200190815260200160002060008373ffffffffffffffffffffffffffffffffffffffff1673ffffffffffffffffffffffffffffffffffffffff16815260200190815260200160002060009054906101000a900460ff16905092915050565b60007f01ffc9a7000000000000000000000000000000000000000000000000000000007bffffffffffffffffffffffffffffffffffffffffffffffffffffffff1916827bffffffffffffffffffffffffffffffffffffffffffffffffffffffff1916149050919050565b60008073ffffffffffffffffffffffffffffffffffffffff166002600084815260200190815260200160002060009054906101000a900473ffffffffffffffffffffffffffffffffffffffff1673ffffffffffffffffffffffffffffffffffffffff1614159050919050565b600033905090565b816004600083815260200190815260200160002060006101000a81548173ffffffffffffffffffffffffffffffffffffffff021916908373ffffffffffffffffffffffffffffffffffffffff160217905550808273ffffffffffffffffffffffffffffffffffffffff16610eae836106d3565b73ffffffffffffffffffffffffffffffffffffffff167f8c5be1e5ebec7d5bd14f71427d1e84f3dd0314c0f7b2291e5b200ac8c7c3b92560405160405180910390a45050565b6000610eff82610dc7565b610f3e576040517f08c379a0000000000000000000000000000000000000000000000000000000008152600401610f35906120da565b60405180910390fd5b6000610f49836106d3565b90508073ffffffffffffffffffffffffffffffffffffffff168473ffffffffffffffffffffffffffffffffffffffff161480610fb857508373ffffffffffffffffffffffffffffffffffffffff16610fa084610490565b73ffffffffffffffffffffffffffffffffffffffff16145b80610fc95750610fc88185610cc9565b5b91505092915050565b8273ffffffffffffffffffffffffffffffffffffffff16610ff2826106d3565b73ffffffffffffffffffffffffffffffffffffffff1614611048576040517f08c379a000000000000000000000000000000000000000000000000000000000815260040161103f9061219a565b60405180910390fd5b600073ffffffffffffffffffffffffffffffffffffffff168273ffffffffffffffffffffffffffffffffffffffff1614156110b8576040517f08c379a00000000000000000000000000000000000000000000000000000000081526004016110af9061209a565b60405180910390fd5b6110c38383836112e5565b6110ce600082610e3b565b6001600360008573ffffffffffffffffffffffffffffffffffffffff1673ffffffffffffffffffffffffffffffffffffffff168152602001908152602001600020600082825461111e9190612344565b925050819055506001600360008473ffffffffffffffffffffffffffffffffffffffff1673ffffffffffffffffffffffffffffffffffffffff168152602001908152602001600020600082825461117591906122ee565b92505081905550816002600083815260200190815260200160002060006101000a81548173ffffffffffffffffffffffffffffffffffffffff021916908373ffffffffffffffffffffffffffffffffffffffff160217905550808273ffffffffffffffffffffffffffffffffffffffff168473ffffffffffffffffffffffffffffffffffffffff167fddf252ad1be2c89b69c2b068fc378daa952ba7f163c4a11628f55a4df523b3ef60405160405180910390a4505050565b61123883836112ea565b61124560008484846114b8565b611284576040517f08c379a000000000000000000000000000000000000000000000000000000000815260040161127b9061205a565b60405180910390fd5b505050565b611294848484610fd2565b6112a0848484846114b8565b6112df576040517f08c379a00000000000000000000000000000000000000000000000000000000081526004016112d69061205a565b60405180910390fd5b50505050565b505050565b600073ffffffffffffffffffffffffffffffffffffffff168273ffffffffffffffffffffffffffffffffffffffff16141561135a576040517f08c379a00000000000000000000000000000000000000000000000000000000081526004016113519061215a565b60405180910390fd5b61136381610dc7565b156113a3576040517f08c379a000000000000000000000000000000000000000000000000000000000815260040161139a9061207a565b60405180910390fd5b6113af600083836112e5565b6001600360008473ffffffffffffffffffffffffffffffffffffffff1673ffffffffffffffffffffffffffffffffffffffff16815260200190815260200160002060008282546113ff91906122ee565b92505081905550816002600083815260200190815260200160002060006101000a81548173ffffffffffffffffffffffffffffffffffffffff021916908373ffffffffffffffffffffffffffffffffffffffff160217905550808273ffffffffffffffffffffffffffffffffffffffff16600073ffffffffffffffffffffffffffffffffffffffff167fddf252ad1be2c89b69c2b068fc378daa952ba7f163c4a11628f55a4df523b3ef60405160405180910390a45050565b60006114d98473ffffffffffffffffffffffffffffffffffffffff1661164f565b15611642578373ffffffffffffffffffffffffffffffffffffffff1663150b7a02611502610e33565b8786866040518563ffffffff1660e01b81526004016115249493929190611fb1565b602060405180830381600087803b15801561153e57600080fd5b505af192505050801561156f57506040513d601f19601f8201168201806040525081019061156c9190611903565b60015b6115f2573d806000811461159f576040519150601f19603f3d011682016040523d82523d6000602084013e6115a4565b606091505b506000815114156115ea576040517f08c379a00000000000000000000000000000000000000000000000000000000081526004016115e19061205a565b60405180910390fd5b805181602001fd5b63150b7a0260e01b7bffffffffffffffffffffffffffffffffffffffffffffffffffffffff1916817bffffffffffffffffffffffffffffffffffffffffffffffffffffffff191614915050611647565b600190505b949350505050565b600080823b905060008111915050919050565b600061167561167084612286565b612255565b90508281526020810184848401111561168d57600080fd5b6116988482856123f9565b509392505050565b6000813590506116af81612535565b92915050565b6000813590506116c48161254c565b92915050565b6000813590506116d981612563565b92915050565b6000815190506116ee81612563565b92915050565b600082601f83011261170557600080fd5b8135611715848260208601611662565b91505092915050565b60008135905061172d8161257a565b92915050565b60006020828403121561174557600080fd5b6000611753848285016116a0565b91505092915050565b6000806040838503121561176f57600080fd5b600061177d858286016116a0565b925050602061178e858286016116a0565b9150509250929050565b6000806000606084860312156117ad57600080fd5b60006117bb868287016116a0565b93505060206117cc868287016116a0565b92505060406117dd8682870161171e565b9150509250925092565b600080600080608085870312156117fd57600080fd5b600061180b878288016116a0565b945050602061181c878288016116a0565b935050604061182d8782880161171e565b925050606085013567ffffffffffffffff81111561184a57600080fd5b611856878288016116f4565b91505092959194509250565b6000806040838503121561187557600080fd5b6000611883858286016116a0565b9250506020611894858286016116b5565b9150509250929050565b600080604083850312156118b157600080fd5b60006118bf858286016116a0565b92505060206118d08582860161171e565b9150509250929050565b6000602082840312156118ec57600080fd5b60006118fa848285016116ca565b91505092915050565b60006020828403121561191557600080fd5b6000611923848285016116df565b91505092915050565b60006020828403121561193e57600080fd5b600061194c8482850161171e565b91505092915050565b61195e81612378565b82525050565b61196d8161238a565b82525050565b600061197e826122b6565b61198881856122cc565b9350611998818560208601612408565b6119a181612524565b840191505092915050565b60006119b7826122c1565b6119c181856122dd565b93506119d1818560208601612408565b6119da81612524565b840191505092915050565b60006119f2603f836122dd565b91507f4552433732314d657461646174613a2055524920717565727920666f72206e6f60008301527f6e6578697374656e7420746f6b656e20286f6e6c7920302065786973747329006020830152604082019050919050565b6000611a586032836122dd565b91507f4552433732313a207472616e7366657220746f206e6f6e20455243373231526560008301527f63656976657220696d706c656d656e74657200000000000000000000000000006020830152604082019050919050565b6000611abe601c836122dd565b91507f4552433732313a20746f6b656e20616c7265616479206d696e746564000000006000830152602082019050919050565b6000611afe6024836122dd565b91507f4552433732313a207472616e7366657220746f20746865207a65726f2061646460008301527f72657373000000000000000000000000000000000000000000000000000000006020830152604082019050919050565b6000611b646019836122dd565b91507f4552433732313a20617070726f766520746f2063616c6c6572000000000000006000830152602082019050919050565b6000611ba4602c836122dd565b91507f4552433732313a206f70657261746f7220717565727920666f72206e6f6e657860008301527f697374656e7420746f6b656e00000000000000000000000000000000000000006020830152604082019050919050565b6000611c0a6038836122dd565b91507f4552433732313a20617070726f76652063616c6c6572206973206e6f74206f7760008301527f6e6572206e6f7220617070726f76656420666f7220616c6c00000000000000006020830152604082019050919050565b6000611c70602a836122dd565b91507f4552433732313a2062616c616e636520717565727920666f7220746865207a6560008301527f726f2061646472657373000000000000000000000000000000000000000000006020830152604082019050919050565b6000611cd66029836122dd565b91507f4552433732313a206f776e657220717565727920666f72206e6f6e657869737460008301527f656e7420746f6b656e00000000000000000000000000000000000000000000006020830152604082019050919050565b6000611d3c6020836122dd565b91507f4552433732313a206d696e7420746f20746865207a65726f20616464726573736000830152602082019050919050565b6000611d7c602c836122dd565b91507f4552433732313a20617070726f76656420717565727920666f72206e6f6e657860008301527f697374656e7420746f6b656e00000000000000000000000000000000000000006020830152604082019050919050565b6000611de26029836122dd565b91507f4552433732313a207472616e73666572206f6620746f6b656e2074686174206960008301527f73206e6f74206f776e00000000000000000000000000000000000000000000006020830152604082019050919050565b6000611e486014836122dd565b91507f746f6b656e20616c7265616479206d696e7465640000000000000000000000006000830152602082019050919050565b6000611e886021836122dd565b91507f4552433732313a20617070726f76616c20746f2063757272656e74206f776e6560008301527f72000000000000000000000000000000000000000000000000000000000000006020830152604082019050919050565b6000611eee6031836122dd565b91507f4552433732313a207472616e736665722063616c6c6572206973206e6f74206f60008301527f776e6572206e6f7220617070726f7665640000000000000000000000000000006020830152604082019050919050565b6000611f546019836122dd565b91507f6f6e6c7920746865206d616e616765722063616e206d696e74000000000000006000830152602082019050919050565b611f90816123e2565b82525050565b6000602082019050611fab6000830184611955565b92915050565b6000608082019050611fc66000830187611955565b611fd36020830186611955565b611fe06040830185611f87565b8181036060830152611ff28184611973565b905095945050505050565b60006020820190506120126000830184611964565b92915050565b6000602082019050818103600083015261203281846119ac565b905092915050565b60006020820190508181036000830152612053816119e5565b9050919050565b6000602082019050818103600083015261207381611a4b565b9050919050565b6000602082019050818103600083015261209381611ab1565b9050919050565b600060208201905081810360008301526120b381611af1565b9050919050565b600060208201905081810360008301526120d381611b57565b9050919050565b600060208201905081810360008301526120f381611b97565b9050919050565b6000602082019050818103600083015261211381611bfd565b9050919050565b6000602082019050818103600083015261213381611c63565b9050919050565b6000602082019050818103600083015261215381611cc9565b9050919050565b6000602082019050818103600083015261217381611d2f565b9050919050565b6000602082019050818103600083015261219381611d6f565b9050919050565b600060208201905081810360008301526121b381611dd5565b9050919050565b600060208201905081810360008301526121d381611e3b565b9050919050565b600060208201905081810360008301526121f381611e7b565b9050919050565b6000602082019050818103600083015261221381611ee1565b9050919050565b6000602082019050818103600083015261223381611f47565b9050919050565b600060208201905061224f6000830184611f87565b92915050565b6000604051905081810181811067ffffffffffffffff8211171561227c5761227b6124f5565b5b8060405250919050565b600067ffffffffffffffff8211156122a1576122a06124f5565b5b601f19601f8301169050602081019050919050565b600081519050919050565b600081519050919050565b600082825260208201905092915050565b600082825260208201905092915050565b60006122f9826123e2565b9150612304836123e2565b9250827fffffffffffffffffffffffffffffffffffffffffffffffffffffffffffffffff0382111561233957612338612497565b5b828201905092915050565b600061234f826123e2565b915061235a836123e2565b92508282101561236d5761236c612497565b5b828203905092915050565b6000612383826123c2565b9050919050565b60008115159050919050565b60007fffffffff0000000000000000000000000000000000000000000000000000000082169050919050565b600073ffffffffffffffffffffffffffffffffffffffff82169050919050565b6000819050919050565b600060ff82169050919050565b82818337600083830152505050565b60005b8381101561242657808201518184015260208101905061240b565b83811115612435576000848401525b50505050565b6000600282049050600182168061245357607f821691505b60208210811415612467576124666124c6565b5b50919050565b6000612478826123ec565b915060ff82141561248c5761248b612497565b5b600182019050919050565b7f4e487b7100000000000000000000000000000000000000000000000000000000600052601160045260246000fd5b7f4e487b7100000000000000000000000000000000000000000000000000000000600052602260045260246000fd5b7f4e487b7100000000000000000000000000000000000000000000000000000000600052604160045260246000fd5b6000601f19601f8301169050919050565b61253e81612378565b811461254957600080fd5b50565b6125558161238a565b811461256057600080fd5b50565b61256c81612396565b811461257757600080fd5b50565b612583816123e2565b811461258e57600080fd5b5056fea2646970667358221220efe535dd002daf416c7b2efa76b8d7baa4d28f192b5f9cd980ac90899e85f48f64736f6c63430008000033",
  "linkReferences": {},
  "deployedLinkReferences": {}
}